:020000040000fa
:080000000002040000000000f2
:020000040000fa
:04000800ec02000006
:020000040000fa
:04000c00ec02000002
:020000040000fa
:04001000ec020000fe
:020000040000fa
:04001400ec020000fa
:020000040000fa
:04001800ec020000f6
:020000040000fa
:04001c00ec020000f2
:020000040000fa
:04002000ec020000ee
:020000040000fa
:04002400ec020000ea
:020000040000fa
:04002800ec020000e6
:020000040000fa
:04002c00ec020000e2
:020000040000fa
:04003000ec020000de
:020000040000fa
:04003400c8020000fe
:020000040000fa
:04003800ec020000d6
:020000040000fa
:04003c00ec020000d2
:020000040000fa
:04004000ec020000ce
:020000040000fa
:04004400ec020000ca
:020000040000fa
:04004800ec020000c6
:020000040000fa
:04004c00ec020000c2
:020000040000fa
:04005000ec020000be
:020000040000fa
:04005400ec020000ba
:020000040000fa
:04005800ec020000b6
:020000040000fa
:04005c00ec020000b2
:020000040000fa
:04006000ec020000ae
:020000040000fa
:04006400ec020000aa
:020000040000fa
:04006800ec020000a6
:020000040000fa
:04006c00ec020000a2
:020000040000fa
:04007000ec0200009e
:020000040000fa
:04007400dc020000aa
:020000040000fa
:04007800ec02000096
:020000040000fa
:04007c00ec02000092
:020000040000fa
:04008000ec0200008e
:020000040000fa
:04008400ec0200008a
:020000040000fa
:04008800ec02000086
:020000040000fa
:04008c00ec02000082
:020000040000fa
:04009000ec0200007e
:020000040000fa
:04009400ec0200007a
:020000040000fa
:04009800ec02000076
:020000040000fa
:04009c00ec02000072
:020000040000fa
:0400a000ec0200006e
:020000040000fa
:0400a400ec0200006a
:020000040000fa
:0400a800ec02000066
:020000040000fa
:0400ac00ec02000062
:020000040000fa
:0400b000ec0200005e
:020000040000fa
:0400b400ec0200005a
:020000040000fa
:0400b800ec02000056
:020000040000fa
:0400bc00ec02000052
:020000040000fa
:0400c000ec0200004e
:020000040000fa
:0400c400ec0200004a
:020000040000fa
:0400c800ec02000046
:020000040000fa
:0400cc00ec02000042
:020000040000fa
:0400d000ec0200003e
:020000040000fa
:0400d400ec0200003a
:020000040000fa
:0400d800ec02000036
:020000040000fa
:0400dc00ec02000032
:020000040000fa
:0400e000ec0200002e
:020000040000fa
:0400e400ec0200002a
:020000040000fa
:0400e800ec02000026
:020000040000fa
:0400ec00ec02000022
:020000040000fa
:0400f000ec0200001e
:020000040000fa
:0400f400ec0200001a
:020000040000fa
:0400f800ec02000016
:020000040000fa
:0400fc00ec02000012
:020000040000fa
:04010000ec0200000d
:020000040000fa
:04010400ec02000009
:020000040000fa
:04010800ec02000005
:020000040000fa
:04010c00ec02000001
:020000040000fa
:04011000ec020000fd
:020000040000fa
:04011400ec020000f9
:020000040000fa
:04011800ec020000f5
:020000040000fa
:04011c00ec020000f1
:020000040000fa
:04012000ec020000ed
:020000040000fa
:04012400ec020000e9
:020000040000fa
:04012800ec020000e5
:020000040000fa
:04012c00ec020000e1
:020000040000fa
:04013000ec020000dd
:020000040000fa
:04013400ec020000d9
:020000040000fa
:04013800ec020000d5
:020000040000fa
:04013c00ec020000d1
:020000040000fa
:04014000ec020000cd
:020000040000fa
:04014400ec020000c9
:020000040000fa
:04014800ec020000c5
:020000040000fa
:04014c00ec020000c1
:020000040000fa
:04015000ec020000bd
:020000040000fa
:04015400ec020000b9
:020000040000fa
:04015800ec020000b5
:020000040000fa
:04015c00ec020000b1
:020000040000fa
:04020800ec02000004
:020000040000fa
:04020c00ec02000000
:020000040000fa
:04021000ec020000fc
:020000040000fa
:04021400ec020000f8
:020000040000fa
:04021800ec020000f4
:020000040000fa
:04021c00ec020000f0
:020000040000fa
:04022000ec020000ec
:020000040000fa
:04022400ec020000e8
:020000040000fa
:04022800ec020000e4
:020000040000fa
:04022c00ec020000e0
:020000040000fa
:04023000ec020000dc
:020000040000fa
:04023400c8020000fc
:020000040000fa
:04023800ec020000d4
:020000040000fa
:04023c00ec020000d0
:020000040000fa
:04024000ec020000cc
:020000040000fa
:04024400ec020000c8
:020000040000fa
:04024800ec020000c4
:020000040000fa
:04024c00ec020000c0
:020000040000fa
:04025000ec020000bc
:020000040000fa
:04025400ec020000b8
:020000040000fa
:04025800ec020000b4
:020000040000fa
:04025c00ec020000b0
:020000040000fa
:04026000ec020000ac
:020000040000fa
:04026400ec020000a8
:020000040000fa
:04026800ec020000a4
:020000040000fa
:04026c00ec020000a0
:020000040000fa
:04027000ec0200009c
:020000040000fa
:04027400dc020000a8
:020000040000fa
:04027800ec02000094
:020000040000fa
:04027c00ec02000090
:020000040000fa
:04028000ec0200008c
:020000040000fa
:04028400ec02000088
:020000040000fa
:04028800ec02000084
:020000040000fa
:04028c00ec02000080
:020000040000fa
:04029000ec0200007c
:020000040000fa
:04029400ec02000078
:020000040000fa
:04029800ec02000074
:020000040000fa
:04029c00ec02000070
:020000040000fa
:0402a000ec0200006c
:020000040000fa
:0402a400ec02000068
:020000040000fa
:0402a800ec02000064
:020000040000fa
:0402ac00ec02000060
:020000040000fa
:0402b000ec0200005c
:020000040000fa
:0402b400ec02000058
:020000040000fa
:0402b800ec02000054
:020000040000fa
:0402bc00ec02000050
:020000040000fa
:0402c000ec0200004c
:020000040000fa
:0402c400ec02000048
:020000040000fa
:0402c800ec02000044
:020000040000fa
:0402cc00ec02000040
:020000040000fa
:0402d000ec0200003c
:020000040000fa
:0402d400ec02000038
:020000040000fa
:0402d800ec02000034
:020000040000fa
:0402dc00ec02000030
:020000040000fa
:0402e000ec0200002c
:020000040000fa
:0402e400ec02000028
:020000040000fa
:0402e800ec02000024
:020000040000fa
:0402ec00ec02000020
:020000040000fa
:0402f000ec0200001c
:020000040000fa
:0402f400ec02000018
:020000040000fa
:0402f800ec02000014
:020000040000fa
:0402fc00ec02000010
:020000040000fa
:04030000ec0200000b
:020000040000fa
:04030400ec02000007
:020000040000fa
:04030800ec02000003
:020000040000fa
:04030c00ec020000ff
:020000040000fa
:04031000ec020000fb
:020000040000fa
:04031400ec020000f7
:020000040000fa
:04031800ec020000f3
:020000040000fa
:04031c00ec020000ef
:020000040000fa
:04032000ec020000eb
:020000040000fa
:04032400ec020000e7
:020000040000fa
:04032800ec020000e3
:020000040000fa
:04032c00ec020000df
:020000040000fa
:04033000ec020000db
:020000040000fa
:04033400ec020000d7
:020000040000fa
:04033800ec020000d3
:020000040000fa
:04033c00ec020000cf
:020000040000fa
:04034000ec020000cb
:020000040000fa
:04034400ec020000c7
:020000040000fa
:04034800ec020000c3
:020000040000fa
:04034c00ec020000bf
:020000040000fa
:04035000ec020000bb
:020000040000fa
:04035400ec020000b7
:020000040000fa
:04035800ec020000b3
:020000040000fa
:04035c00ec020000af
:020000040000fa
:10040000af8020000edf20000e01880000000000f9
:10041000000020000000e000020032000001200087
:1004200020028800140007006d0007000000e000b3
:1004300003003a00405f2000010020000200370066
:100440000000200001002000810f70000100320038
:1004500014000700000020000000e000020032004d
:100460000000020000000000bc04020000000000c8
:100470000040da000000fe004440a9000000200017
:100480000000e0000300320000002000a00188000e
:100490004440a800000006008a1f78008b1f7800e7
:1004a0000000060091018800800478000000eb0045
:1004b0001a003700e284440032a0b4009905ba0063
:1004c000e284440032a0b4009906ba00e2844400f9
:1004d00032a0b4000006eb00476fde00fd07b2005b
:1004e000636ce10003003a00ebff07000000eb0043
:1004f0000a003700606ce10004003a00005deb0088
:100500008b05e900fdff3e00040037006168e10053
:10051000010032000086eb000b00070019c7ba008b
:100520001905ba000e04e00003003a000a00e000da
:10053000e0ff3a0000000600fe07b2009e018800be
:100540008a047800f5ff3700395dba008b05e900b1
:100550000c003200295dba008b05e900080032006a
:100560000c00e00003003a00e284440032a0b40032
:10057000f5ff370019ddba008b05e900faff3a00f4
:100580008904e800e184440032a0b40000000600c1
:10059000801f78000000fa008460a90005e1a9002e
:1005a000404080000000e800404088000080fa00e1
:1005b0004f00780000400600801f78000000fa001d
:1005c00010c0b30006e8b7008660a9000080fa00fa
:1005d0004f007800004006000040da000000fe00f6
:0405e0000000050012
:020000040000fa
:1005e4000000fa0062e0a80062c0a80062a0a800af
:1005f4006100a80061c0a8006ae0a8006ac0a80061
:100604006aa0a8006900a80069c0a8009660a800b4
:10061400c882a800c882a800c882a800c882a8000e
:10062400c882a80061058000000027000100700056
:10063400600588000080fa00000006000000fa004f
:1006440005e1a9000421a90021088000f0fc2f0085
:10065400008060002008880004c1a90005a1a90049
:100664000441a9009460a80021058000f0ff28003f
:1006740080806000000026000100700020058800d2
:100684000080fa00000006000200fa00000f780063
:100694000828ef001e0078004200dd0010088800e2
:1006a40005e1a8000140fe000080fa0000000600f9
:1006b4000200fa00000f78000828ef00401f200015
:1006c400060107009e007800a00f20000088b900f2
:1006d400000078001008880005e1a8000140fe0031
:1006e40080002000fd0007000080fa0000000600e2
:1006f4000000fa00cc82a80040192100e2ff0700a4
:10070400cc82a90040192100dfff07000080fa0015
:10071400000006000000fa00cc82a800002320009c
:10072400d9ff0700cc82a90000232000d6ff0700d0
:100734000080fa00000006000000fa00cc82a80045
:1007440000232000d0ff0700cc82a900a06920006c
:10075400cdff07000080fa00000006000600fa0042
:100764000e81e8000089be000040eb00004f7800d5
:10077400dfff07000040eb00004f78001300370054
:100784001e80fb007f0110000e80e8001000be00f8
:10079400820178008301e900030033008100d10065
:1007a4000080d300fbff3700000078006100600088
:1007b400004078000004e00002003200deff070081
:1007c40001003700d3ff07001e4fe8001e407800e9
:1007d400ff4f5000eaff3600ceff07000080fa000a
:1007e400000006000000fa005116800000002100fd
:1007f400008060000000e00003003a00f00b2800d5
:10080400010e2e00d5ff0700501680004700de00c1
:10081400614060008080fb0000c8bf000080fb00d6
:10082400808f50000e003200501680004700de001a
:100834006140600000e8b70000c8bf000004e000a9
:1008440004003a00708b2600010e2e00c3ff07003f
:1008540003003700706b2600010e2e00bfff070057
:10086400501680004800de00614060008080fb007c
:1008740001c8bf000080fb00808f50000e003200d2
:10088400501680004800de006140600001e8b700b7
:1008940001c8bf000004e00004003a00708f260085
:1008a400010e2e00adff070003003700706f260015
:1008b400010e2e00a9ff0700501680004900de003b
:1008c400614060008080fb0002c8bf000080fb0024
:1008d400808f50000e003200501680004900de0068
:1008e4006140600002e8b70002c8bf000004e000f5
:1008f40004003a00f0012f00010e2e0097ff0700bc
:1009040003003700f0f12f00010e2e0093ff0700c3
:10091400101680004600de00614060008080fb000d
:1009240003c8bf000080fb00808f50000e0032001f
:10093400101680004600de006140600003e8b70046
:1009440003c8bf000004e00004003a00f0622e0077
:10095400010e2e0081ff070003003700f0822e00f5
:10096400010e2e007dff07000668ef000080fa00ec
:10097400000006000000fa000080eb006019880007
:1009840081e0a80080002000540007002bff07002e
:1009940013ff0700c082a900c882a90034003700f1
:1009a4005116800000082000008060000000e00074
:1009b40005003a00708b2600010e2e0067ff070029
:1009c400803e200030ff07005116800000102000f8
:1009d400008060000000e00005003a00708f2600ef
:1009e400010e2e005dff0700803e200026ff070059
:1009f4005116800000202000008060000000e0000c
:100a040005003a00f0012f00010e2e0053ff0700ed
:100a1400803e20001cff0700111680000004200007
:100a2400008060000000e00005003a00f0622e0043
:100a3400010e2e0049ff0700803e200012ff070030
:100a44005116800000002100008060000000e000da
:100a540005003a00f00b2800010e2e003fff0700ae
:100a6400803e200008ff07008038210006ff0700b1
:100a74005116800000082000008060000000e000a3
:100a8400c7ff320051168000001020000080600073
:100a94000000e000c2ff3200511680000020200058
:100aa400008060000000e000bdff320011168000ed
:100ab40000042000008060000000e000b8ff320065
:100ac4005116800000002100008060000000e0005a
:100ad400b3ff320000000000e5ff37000400fa0015
:100ae4008e80e800800878000e80e800100078000e
:100af400e80f500005003a000040eb00004f78007a
:100b0400d0032000403a8800140037000e80e8002b
:100b140090007800401f2000808f500005003a00ac
:100b240060c6b300004f7800d0032000403a88002c
:100b34000a0037000e80e8009000780000022000d0
:100b4400808f500003003a0050c5b300004f780076
:100b54000200370050c5b300004f78001102800036
:100b6400000e20000100700010028800213a80006d
:100b7400f08f2f0000806000203a88001e01fb00e7
:100b840080072000a10920003374200080497800e8
:100b94008149780082497800120020006004200016
:100ba4007105200023742000804978008149780071
:100bb400824978004207a80000000000103a800033
:100bc400610060000000e000fcff3a0011028000b8
:100bd400f0f12f0000806000100288000080fa000d
:040be4000000060007
:020000040000fa
:100be80000080000060000000200000001010100ea
:100bf80001010000060800000400000000000000d9
:040c080000000000e8
:020000040000fa
:0200000401f009
:04000000ffffff00ff
:020000040000fa
:0200000401f009
:04000800ffffff00f7
:020000040000fa
:0200000401f009
:04000c0000000000f0
:020000040000fa
:0200000401f009
:040010005300000099
:020000040000fa
:0200000401f009
:0400140040000000a8
:020000040000fa
:0200000401f009
:0400180010000000d4
:020000040000fa
:0200000401f009
:04001c00c20000001e
:020000040000fa
:0200000401f009
:0400200017000000c5
:00000001FF
