:020000040000fa
:080000000002040000000000f2
:020000040000fa
:040008000c030000e5
:020000040000fa
:04000c000c030000e1
:020000040000fa
:040010000c030000dd
:020000040000fa
:040014000c030000d9
:020000040000fa
:040018000c030000d5
:020000040000fa
:04001c000c030000d1
:020000040000fa
:040020000c030000cd
:020000040000fa
:040024000c030000c9
:020000040000fa
:040028000c030000c5
:020000040000fa
:04002c000c030000c1
:020000040000fa
:040030000c030000bd
:020000040000fa
:04003400d8020000ee
:020000040000fa
:040038000c030000b5
:020000040000fa
:04003c000c030000b1
:020000040000fa
:040040000c030000ad
:020000040000fa
:04004400e4020000d2
:020000040000fa
:04004800ee020000c4
:020000040000fa
:04004c000c030000a1
:020000040000fa
:040050000c0300009d
:020000040000fa
:040054000c03000099
:020000040000fa
:040058000c03000095
:020000040000fa
:04005c000c03000091
:020000040000fa
:040060000c0300008d
:020000040000fa
:040064000c03000089
:020000040000fa
:040068000c03000085
:020000040000fa
:04006c000c03000081
:020000040000fa
:040070000c0300007d
:020000040000fa
:04007400c8020000be
:020000040000fa
:040078000c03000075
:020000040000fa
:04007c000c03000071
:020000040000fa
:040080000c0300006d
:020000040000fa
:040084000c03000069
:020000040000fa
:040088000c03000065
:020000040000fa
:04008c000c03000061
:020000040000fa
:040090000c0300005d
:020000040000fa
:040094000c03000059
:020000040000fa
:040098000c03000055
:020000040000fa
:04009c000c03000051
:020000040000fa
:0400a0000c0300004d
:020000040000fa
:0400a4000c03000049
:020000040000fa
:0400a8000c03000045
:020000040000fa
:0400ac000c03000041
:020000040000fa
:0400b0000c0300003d
:020000040000fa
:0400b4000c03000039
:020000040000fa
:0400b8000c03000035
:020000040000fa
:0400bc000c03000031
:020000040000fa
:0400c0000c0300002d
:020000040000fa
:0400c4000c03000029
:020000040000fa
:0400c8000c03000025
:020000040000fa
:0400cc000c03000021
:020000040000fa
:0400d0000c0300001d
:020000040000fa
:0400d4000c03000019
:020000040000fa
:0400d8000c03000015
:020000040000fa
:0400dc000c03000011
:020000040000fa
:0400e0000c0300000d
:020000040000fa
:0400e4000c03000009
:020000040000fa
:0400e8000c03000005
:020000040000fa
:0400ec000c03000001
:020000040000fa
:0400f0000c030000fd
:020000040000fa
:0400f4000c030000f9
:020000040000fa
:0400f8000c030000f5
:020000040000fa
:0400fc000c030000f1
:020000040000fa
:040100000c030000ec
:020000040000fa
:040104000c030000e8
:020000040000fa
:040108000c030000e4
:020000040000fa
:04010c000c030000e0
:020000040000fa
:040110000c030000dc
:020000040000fa
:040114000c030000d8
:020000040000fa
:040118000c030000d4
:020000040000fa
:04011c000c030000d0
:020000040000fa
:040120000c030000cc
:020000040000fa
:040124000c030000c8
:020000040000fa
:040128000c030000c4
:020000040000fa
:04012c000c030000c0
:020000040000fa
:040130000c030000bc
:020000040000fa
:040134000c030000b8
:020000040000fa
:040138000c030000b4
:020000040000fa
:04013c000c030000b0
:020000040000fa
:040140000c030000ac
:020000040000fa
:040144000c030000a8
:020000040000fa
:040148000c030000a4
:020000040000fa
:04014c000c030000a0
:020000040000fa
:040150000c0300009c
:020000040000fa
:040154000c03000098
:020000040000fa
:040158000c03000094
:020000040000fa
:04015c000c03000090
:020000040000fa
:040208000c030000e3
:020000040000fa
:04020c000c030000df
:020000040000fa
:040210000c030000db
:020000040000fa
:040214000c030000d7
:020000040000fa
:040218000c030000d3
:020000040000fa
:04021c000c030000cf
:020000040000fa
:040220000c030000cb
:020000040000fa
:040224000c030000c7
:020000040000fa
:040228000c030000c3
:020000040000fa
:04022c000c030000bf
:020000040000fa
:040230000c030000bb
:020000040000fa
:04023400d8020000ec
:020000040000fa
:040238000c030000b3
:020000040000fa
:04023c000c030000af
:020000040000fa
:040240000c030000ab
:020000040000fa
:04024400e4020000d0
:020000040000fa
:04024800ee020000c2
:020000040000fa
:04024c000c0300009f
:020000040000fa
:040250000c0300009b
:020000040000fa
:040254000c03000097
:020000040000fa
:040258000c03000093
:020000040000fa
:04025c000c0300008f
:020000040000fa
:040260000c0300008b
:020000040000fa
:040264000c03000087
:020000040000fa
:040268000c03000083
:020000040000fa
:04026c000c0300007f
:020000040000fa
:040270000c0300007b
:020000040000fa
:04027400c8020000bc
:020000040000fa
:040278000c03000073
:020000040000fa
:04027c000c0300006f
:020000040000fa
:040280000c0300006b
:020000040000fa
:040284000c03000067
:020000040000fa
:040288000c03000063
:020000040000fa
:04028c000c0300005f
:020000040000fa
:040290000c0300005b
:020000040000fa
:040294000c03000057
:020000040000fa
:040298000c03000053
:020000040000fa
:04029c000c0300004f
:020000040000fa
:0402a0000c0300004b
:020000040000fa
:0402a4000c03000047
:020000040000fa
:0402a8000c03000043
:020000040000fa
:0402ac000c0300003f
:020000040000fa
:0402b0000c0300003b
:020000040000fa
:0402b4000c03000037
:020000040000fa
:0402b8000c03000033
:020000040000fa
:0402bc000c0300002f
:020000040000fa
:0402c0000c0300002b
:020000040000fa
:0402c4000c03000027
:020000040000fa
:0402c8000c03000023
:020000040000fa
:0402cc000c0300001f
:020000040000fa
:0402d0000c0300001b
:020000040000fa
:0402d4000c03000017
:020000040000fa
:0402d8000c03000013
:020000040000fa
:0402dc000c0300000f
:020000040000fa
:0402e0000c0300000b
:020000040000fa
:0402e4000c03000007
:020000040000fa
:0402e8000c03000003
:020000040000fa
:0402ec000c030000ff
:020000040000fa
:0402f0000c030000fb
:020000040000fa
:0402f4000c030000f7
:020000040000fa
:0402f8000c030000f3
:020000040000fa
:0402fc000c030000ef
:020000040000fa
:040300000c030000ea
:020000040000fa
:040304000c030000e6
:020000040000fa
:040308000c030000e2
:020000040000fa
:04030c000c030000de
:020000040000fa
:040310000c030000da
:020000040000fa
:040314000c030000d6
:020000040000fa
:040318000c030000d2
:020000040000fa
:04031c000c030000ce
:020000040000fa
:040320000c030000ca
:020000040000fa
:040324000c030000c6
:020000040000fa
:040328000c030000c2
:020000040000fa
:04032c000c030000be
:020000040000fa
:040330000c030000ba
:020000040000fa
:040334000c030000b6
:020000040000fa
:040338000c030000b2
:020000040000fa
:04033c000c030000ae
:020000040000fa
:040340000c030000aa
:020000040000fa
:040344000c030000a6
:020000040000fa
:040348000c030000a2
:020000040000fa
:04034c000c0300009e
:020000040000fa
:040350000c0300009a
:020000040000fa
:040354000c03000096
:020000040000fa
:040358000c03000092
:020000040000fa
:04035c000c0300008e
:020000040000fa
:100400006f8120000edf20000e0188000000000038
:10041000000020000000e000020032000001200087
:1004200020028800140007007d0007000000e000a3
:1004300003003a00a08020000100200002003700e5
:100440000000200001002000810f70000100320038
:1004500014000700000020000000e000020032004d
:1004600000000200000000002e0702000000000053
:100470000040da000000fe004440a9008001200096
:100480000000e0000300320000002000a00188000e
:100490004440a800000006008a1f78008b1f7800e7
:1004a0000000060091018800800478000000eb0045
:1004b0001a003700e284440032a0b4009905ba0063
:1004c000e284440032a0b4009906ba00e2844400f9
:1004d00032a0b4000006eb00476fde00fd07b2005b
:1004e000636ce10003003a00ebff07000000eb0043
:1004f0000a003700606ce10004003a00005deb0088
:100500008b05e900fdff3e00040037006168e10053
:10051000010032000086eb000b00070019c7ba008b
:100520001905ba000e04e00003003a000a00e000da
:10053000e0ff3a0000000600fe07b2009e018800be
:100540008a047800f5ff3700395dba008b05e900b1
:100550000c003200295dba008b05e900080032006a
:100560000c00e00003003a00e284440032a0b40032
:10057000f5ff370019ddba008b05e900faff3a00f4
:100580008904e800e184440032a0b40000000600c1
:10059000801f78000000fa0010c0b30010e8b70018
:1005a0008660a9000080fa004f0078000040060035
:1005b0000000fa000068ef0005e1a9008460a900ce
:1005c0000080fa00004006000000fa0011e1a900d6
:1005d00084e0a9000080fa0000400600801f780037
:1005e0000000fa00904080000000e8009040880081
:1005f00090408000ea0f500002003a0010c0b300a3
:1006000011e8b7000a21ef008500a9000080fa0078
:100610004f007800004006000040da000000fe00b5
:0406200000000500d1
:020000040000fa
:100624007570000020000000646f0000776e000009
:10063400200000006c6500006674000020000000cb
:100644007269000067680000742000000000000068
:020000040000fa
:100654000000fa0013e1a9001221a900910880000a
:10066400f0fc2f00008060000040a000900888008b
:1006740012c1a90013a1a90000712200700888000a
:100684009500a8004105800080ff2f0000806000d5
:100694000010a000400588000080fa000000060059
:1006a4000000fa0011e1a9001021a90081088000ce
:1006b400f0fc2f00008060008008880010c1a900b1
:1006c40011a1a9001061a90000e2240060088800bb
:1006d40094e0a80031058000f0ff2800008060004d
:1006e40000c0a000300588000080fa000000060069
:1006f4000200fa00000f78001e0078004200dd00be
:100704006008880011e1a8000140fe000080fa00a2
:10071400000006000000fa0005e1a9000421a90078
:1007240021088000f0fc2f00008060002008880071
:1007340004c1a90005a1a9000441a90000e2240004
:10074400100888009460a80021058000f0ff2800ac
:1007540080806000000023000100700020058800f4
:100764000080fa00000006000000fa000008800083
:100774004200de000080fa00000006000200fa00d9
:10078400000f78001e0078004200dd000008880099
:100794000080fa00000006000200fa00004f780012
:1007a4001e81fb0010002000010020000002be009a
:1007b400020378000603e900030033000402420048
:1007c40085824a00fbff37000401be002040800000
:1007d4003140800000007100818071002040880059
:1007e400314088000080fa00000006000200fa0090
:1007f400004f78001e82fb00100020000100200042
:10080400040178000201e900030033000000400005
:1008140081804800fbff37000082ea008182ea0001
:1008240020408000314080000403780005027800f5
:100834008002780081007800050063008100620076
:1008440081017800000178000200be002040880089
:10085400314088000080fa00000006000000fa0021
:10086400cd22a80010002000a1ff0700cd22a9007e
:100874000080fa00000006000200fa00004f780031
:100884001e80fb004700de000040780061406000ed
:100894000080fb00610060004e00dd0061168000f6
:1008a40001e0a10001007000601688001e80fb00ba
:1008b4004600de0000407800614060006140600056
:1008c400614060000080fb00610060004d00dd00bd
:1008d4006116800001d0a10001007000601688003c
:1008e4001e80fb004500de0000407800614060008f
:1008f40061406000614060000080fb0061006000b6
:100904004c00dd006116800001c0a10001007000f0
:10091400601688001e80fb004400de000040780062
:100924006140600061406000614060000080fb0045
:10093400610060004600dd00211680000160a10016
:1009440001007000201688000080fa0000000600f4
:100954000200fa00004f78001e407800c6ff07002e
:10096400cce2a900cd02a900bcff07001e00fb00d9
:100974004400dd00004f78001e407800beff0700f1
:10098400b6ff07000080fa00000006000200fa002b
:10099400004f78001e407800b7ff0700cce2a800a3
:1009a400cd02a900adff07001e00fb004400dd00de
:1009b400004f78001e407800afff0700a7ff070034
:1009c4000080fa00000006000400fa008e80e800af
:1009d400800878000000eb00000f78000700370063
:1009e4009e0078000e80e8001000780001004000ae
:1009f40010407800e5ff07001e0fe8009e00780015
:100a04000e80e800100078000100400010407800db
:100a14000004e000f2ff3a000080fa000000060043
:100a24000000fa000040eb00c9ff070010c0b3004b
:100a3400c7ff07000080fa00000006000200fa0069
:100a4400c8e2a900c902a900c922a900c0c2a9001c
:100a5400c982a900c9a2a900c9c2a9000040eb002b
:100a640085ff07000000eb00000f7800030037004b
:100a7400803e20001eff07001e0fe8001e007800c5
:100a8400e90f5000faff340000c3b3007aff0700f7
:100a94008038210016ff070070ff0700000a2000bd
:100aa40013ff07006dff0700000a200010ff070076
:100ab4006aff0700000a20000dff070000c2b30010
:100ac4006dff070065ff070080c2b300a0ff0700a9
:100ad40000c1b3009eff0700f0c0b3009cff0700f5
:100ae40060c0b3009aff07000080fa00000006000f
:100af4000000fa002240800033408000f00b280000
:100b0400010e2e00800f5100818f590006003a001b
:100b14000a68ef000b68ef000868ef000968ef004f
:100b2400bfff0700270037002240800033408000c9
:100b3400708b2600010e2e00800f5100818f59000a
:100b440003003a0010c0b3000ae8b7001d003700e4
:100b54002240800033408000708f2600010e2e005a
:100b6400800f5100818f590003003a0010c0b30078
:100b74000be8b700130037002240800033408000a8
:100b8400f0012f00010e2e00800f5100818f5900bb
:100b940003003a0010c0b30008e8b70009003700aa
:100ba4002240800033408000f0622e00010e2e00af
:100bb400800f5100818f590002003a0010c0b30029
:100bc40009e8b7000168ef00f18020009140780047
:100bd4000bc8bf0080cf50000f003a00e180200016
:100be400914078000ac8bf0080cf50000a003a0044
:100bf400c18020009140780008c8bf0080cf500019
:100c040005003a00d18020009140780009c8bf0057
:100c140080cf50001f00320081ff0700803e20007b
:100c2400b3fe070008c8bf000004e0000200320061
:100c34002031280064ff070009c8bf000004e00059
:100c440002003200603128005fff07000ac8bf00bd
:100c54000004e00002003200c03128005aff0700ff
:100c64000bc8bf000004e00002003200203228005c
:100c740055ff07000bc8bf000fe8b7000ac8bf0044
:100c84000ee8b70008c8bf000ce8b70009c8bf00e9
:100c94000de8b7000080fa00000006000000fa002a
:100ca4001068ef0000c8bf000004e0000400320038
:100cb400adfe0700104088000000eb00affe070007
:100cc40000c8bf000080fb00e20f5000210032008a
:100cd400e20f500005003c000000e0000800320074
:100ce400e10f50000d00320059003700e30f5000af
:100cf40026003200e40f5000320032005400370066
:100d040005e1a8000000eb009cfe070010c0b30042
:100d140000e8b7001468ef004d0037001140800070
:100d240080382100808f500004003e001140800074
:100d3400f0f92000808f500003003e000068ef00af
:100d440005e1a9004200370020c0b30000e8b70065
:100d54003f0037001140800080382100808f500010
:100d640004003e0011408000f0f92000808f500004
:100d740003003e000068ef0005e1a90034003700dd
:100d840030c0b30000e8b7003100370011408000e4
:100d9400c02b2000808f500004003e0011408000d2
:100da400f0182000808f500003003e000068ef0020
:100db40005e1a9002600370040c0b30000e8b700f1
:100dc400230037001140800080702000808f500085
:100dd40004003e0011408000f0182000808f500075
:100de40003003e000068ef0005e1a9001800370089
:100df40011408000803e2000808f500005003600a6
:100e040014c8bf00f1c1b30000c0500062fe070067
:100e14000400370014c8bf00f1c1b30000c0500083
:100e240072fe070014c8bf000040e80014e8b700d1
:100e340014c8bf00ff4f50000200360010c0b300ba
:100e440001e8b70030c0b30000e8b70000000000bc
:100e54000080fa00000006000000fa000080eb00a9
:100e64006019880081e0a8008000200026000700a7
:100e7400c082a800c842a8009660a80060c0a8006c
:100e84006000a800610580000000270001007000d8
:100e940060058800c882a9001efe070000fe070046
:100ea400ebfd0700e5fe070001003700000000002d
:100eb40010c8bf000004e0000100320077ff070003
:100ec40001c8bf00e14f500003003a0008ff0700cb
:100ed4000a21ef0013e1a80011c8bf000004e000dc
:100ee400f2ff3200cefe07000868ef000968ef0049
:100ef4000a68ef000b68ef001228ef0013e1a90065
:100f04001168ef00eaff37000400fa008e80e80061
:100f1400800878000e80e80010007800e80f500088
:100f240005003a000040eb00004f7800d003200099
:100f3400403a8800140037000e80e80090007800e2
:100f4400401f2000808f500005003a0060c6b300a7
:100f5400004f7800d0032000403a88000a00370090
:100f64000e80e8009000780000022000808f50007e
:100f740003003a0050c5b300004f78000200370068
:100f840050c5b300004f780011028000000e20000d
:100f94000100700010028800213a8000f08f2f00b9
:100fa40000806000203a88001e01fb0080072000ba
:100fb400a109200033742000804978008149780019
:100fc400824978001200200060042000710520008e
:100fd4002374200080497800814978008249780090
:100fe4004207a80000000000103a80006100600081
:100ff4000000e000fcff3a0011028000f0f12f0035
:1010040000806000100288000080fa0000000600e2
:020000040000fa
:101014000008000014000000000000001408000094
:1010240002000000020000001f0000000000000099
:020000040000fa
:0200000401f009
:04000000ffffff00ff
:020000040000fa
:0200000401f009
:04000800ffffff00f7
:020000040000fa
:0200000401f009
:04000c0000000000f0
:020000040000fa
:0200000401f009
:040010005300000099
:020000040000fa
:0200000401f009
:0400140040000000a8
:020000040000fa
:0200000401f009
:0400180010000000d4
:020000040000fa
:0200000401f009
:04001c00c20000001e
:020000040000fa
:0200000401f009
:0400200017000000c5
:00000001FF
