:020000040000fa
:080000000002040000000000f2
:020000040000fa
:0400080000030000f1
:020000040000fa
:04000c0000030000ed
:020000040000fa
:0400100000030000e9
:020000040000fa
:0400140000030000e5
:020000040000fa
:0400180000030000e1
:020000040000fa
:04001c0000030000dd
:020000040000fa
:0400200000030000d9
:020000040000fa
:0400240000030000d5
:020000040000fa
:0400280000030000d1
:020000040000fa
:04002c0000030000cd
:020000040000fa
:0400300000030000c9
:020000040000fa
:04003400d8020000ee
:020000040000fa
:0400380000030000c1
:020000040000fa
:04003c0000030000bd
:020000040000fa
:0400400000030000b9
:020000040000fa
:04004400e4020000d2
:020000040000fa
:04004800ee020000c4
:020000040000fa
:04004c0000030000ad
:020000040000fa
:0400500000030000a9
:020000040000fa
:0400540000030000a5
:020000040000fa
:0400580000030000a1
:020000040000fa
:04005c00000300009d
:020000040000fa
:040060000003000099
:020000040000fa
:040064000003000095
:020000040000fa
:040068000003000091
:020000040000fa
:04006c00000300008d
:020000040000fa
:040070000003000089
:020000040000fa
:04007400c8020000be
:020000040000fa
:040078000003000081
:020000040000fa
:04007c00000300007d
:020000040000fa
:040080000003000079
:020000040000fa
:040084000003000075
:020000040000fa
:040088000003000071
:020000040000fa
:04008c00000300006d
:020000040000fa
:040090000003000069
:020000040000fa
:040094000003000065
:020000040000fa
:040098000003000061
:020000040000fa
:04009c00000300005d
:020000040000fa
:0400a0000003000059
:020000040000fa
:0400a4000003000055
:020000040000fa
:0400a8000003000051
:020000040000fa
:0400ac00000300004d
:020000040000fa
:0400b0000003000049
:020000040000fa
:0400b4000003000045
:020000040000fa
:0400b8000003000041
:020000040000fa
:0400bc00000300003d
:020000040000fa
:0400c0000003000039
:020000040000fa
:0400c4000003000035
:020000040000fa
:0400c8000003000031
:020000040000fa
:0400cc00000300002d
:020000040000fa
:0400d0000003000029
:020000040000fa
:0400d4000003000025
:020000040000fa
:0400d8000003000021
:020000040000fa
:0400dc00000300001d
:020000040000fa
:0400e0000003000019
:020000040000fa
:0400e4000003000015
:020000040000fa
:0400e8000003000011
:020000040000fa
:0400ec00000300000d
:020000040000fa
:0400f0000003000009
:020000040000fa
:0400f4000003000005
:020000040000fa
:0400f8000003000001
:020000040000fa
:0400fc0000030000fd
:020000040000fa
:0401000000030000f8
:020000040000fa
:0401040000030000f4
:020000040000fa
:0401080000030000f0
:020000040000fa
:04010c0000030000ec
:020000040000fa
:0401100000030000e8
:020000040000fa
:0401140000030000e4
:020000040000fa
:0401180000030000e0
:020000040000fa
:04011c0000030000dc
:020000040000fa
:0401200000030000d8
:020000040000fa
:0401240000030000d4
:020000040000fa
:0401280000030000d0
:020000040000fa
:04012c0000030000cc
:020000040000fa
:0401300000030000c8
:020000040000fa
:0401340000030000c4
:020000040000fa
:0401380000030000c0
:020000040000fa
:04013c0000030000bc
:020000040000fa
:0401400000030000b8
:020000040000fa
:0401440000030000b4
:020000040000fa
:0401480000030000b0
:020000040000fa
:04014c0000030000ac
:020000040000fa
:0401500000030000a8
:020000040000fa
:0401540000030000a4
:020000040000fa
:0401580000030000a0
:020000040000fa
:04015c00000300009c
:020000040000fa
:0402080000030000ef
:020000040000fa
:04020c0000030000eb
:020000040000fa
:0402100000030000e7
:020000040000fa
:0402140000030000e3
:020000040000fa
:0402180000030000df
:020000040000fa
:04021c0000030000db
:020000040000fa
:0402200000030000d7
:020000040000fa
:0402240000030000d3
:020000040000fa
:0402280000030000cf
:020000040000fa
:04022c0000030000cb
:020000040000fa
:0402300000030000c7
:020000040000fa
:04023400d8020000ec
:020000040000fa
:0402380000030000bf
:020000040000fa
:04023c0000030000bb
:020000040000fa
:0402400000030000b7
:020000040000fa
:04024400e4020000d0
:020000040000fa
:04024800ee020000c2
:020000040000fa
:04024c0000030000ab
:020000040000fa
:0402500000030000a7
:020000040000fa
:0402540000030000a3
:020000040000fa
:04025800000300009f
:020000040000fa
:04025c00000300009b
:020000040000fa
:040260000003000097
:020000040000fa
:040264000003000093
:020000040000fa
:04026800000300008f
:020000040000fa
:04026c00000300008b
:020000040000fa
:040270000003000087
:020000040000fa
:04027400c8020000bc
:020000040000fa
:04027800000300007f
:020000040000fa
:04027c00000300007b
:020000040000fa
:040280000003000077
:020000040000fa
:040284000003000073
:020000040000fa
:04028800000300006f
:020000040000fa
:04028c00000300006b
:020000040000fa
:040290000003000067
:020000040000fa
:040294000003000063
:020000040000fa
:04029800000300005f
:020000040000fa
:04029c00000300005b
:020000040000fa
:0402a0000003000057
:020000040000fa
:0402a4000003000053
:020000040000fa
:0402a800000300004f
:020000040000fa
:0402ac00000300004b
:020000040000fa
:0402b0000003000047
:020000040000fa
:0402b4000003000043
:020000040000fa
:0402b800000300003f
:020000040000fa
:0402bc00000300003b
:020000040000fa
:0402c0000003000037
:020000040000fa
:0402c4000003000033
:020000040000fa
:0402c800000300002f
:020000040000fa
:0402cc00000300002b
:020000040000fa
:0402d0000003000027
:020000040000fa
:0402d4000003000023
:020000040000fa
:0402d800000300001f
:020000040000fa
:0402dc00000300001b
:020000040000fa
:0402e0000003000017
:020000040000fa
:0402e4000003000013
:020000040000fa
:0402e800000300000f
:020000040000fa
:0402ec00000300000b
:020000040000fa
:0402f0000003000007
:020000040000fa
:0402f4000003000003
:020000040000fa
:0402f80000030000ff
:020000040000fa
:0402fc0000030000fb
:020000040000fa
:0403000000030000f6
:020000040000fa
:0403040000030000f2
:020000040000fa
:0403080000030000ee
:020000040000fa
:04030c0000030000ea
:020000040000fa
:0403100000030000e6
:020000040000fa
:0403140000030000e2
:020000040000fa
:0403180000030000de
:020000040000fa
:04031c0000030000da
:020000040000fa
:0403200000030000d6
:020000040000fa
:0403240000030000d2
:020000040000fa
:0403280000030000ce
:020000040000fa
:04032c0000030000ca
:020000040000fa
:0403300000030000c6
:020000040000fa
:0403340000030000c2
:020000040000fa
:0403380000030000be
:020000040000fa
:04033c0000030000ba
:020000040000fa
:0403400000030000b6
:020000040000fa
:0403440000030000b2
:020000040000fa
:0403480000030000ae
:020000040000fa
:04034c0000030000aa
:020000040000fa
:0403500000030000a6
:020000040000fa
:0403540000030000a2
:020000040000fa
:04035800000300009e
:020000040000fa
:04035c00000300009a
:020000040000fa
:100400006f8120000edf20000e0188000000000038
:10041000000020000000e000020032000001200087
:100420002002880014000700770007000000e000a9
:1004300003003a0020832000010020000200370062
:100440000000200001002000810f70000100320038
:1004500014000700000020000000e000020032004d
:10046000000002000000000054070200000000002d
:100470000040da000000fe004440a9008001200096
:100480000000e0000300320000002000a00188000e
:100490004440a800000006008a1f78008b1f7800e7
:1004a0000000060091018800800478000000eb0045
:1004b0001a003700e284440032a0b4009905ba0063
:1004c000e284440032a0b4009906ba00e2844400f9
:1004d00032a0b4000006eb00476fde00fd07b2005b
:1004e000636ce10003003a00ebff07000000eb0043
:1004f0000a003700606ce10004003a00005deb0088
:100500008b05e900fdff3e00040037006168e10053
:10051000010032000086eb000b00070019c7ba008b
:100520001905ba000e04e00003003a000a00e000da
:10053000e0ff3a0000000600fe07b2009e018800be
:100540008a047800f5ff3700395dba008b05e900b1
:100550000c003200295dba008b05e900080032006a
:100560000c00e00003003a00e284440032a0b40032
:10057000f5ff370019ddba008b05e900faff3a00f4
:100580008904e800e184440032a0b40000000600c1
:10059000801f78000000fa0010c0b30012e8b70016
:1005a0008660a9000080fa004f0078000040060035
:1005b0000000fa000068ef0005e1a9008460a900ce
:1005c0000080fa00004006000000fa0011e1a900d6
:1005d00084e0a9000080fa0000400600801f780037
:1005e0000000fa0010c0b30013e8b7000a21ef00c2
:1005f0008500a9000080fa004f0078000040060046
:0c0600000040da000000fe0000000500d1
:020000040000fa
:10060c007570000020000000646f0000776e000021
:10061c00200000006c6500006674000020000000e3
:10062c007269000067680000742000000000000080
:020000040000fa
:10063c000000fa0013e1a9001221a9009108800022
:10064c00f0fc2f00008060000040a00090088800a3
:10065c0012c1a90013a1a90000532700700888003b
:10066c009500a8004105800080ff2f0000806000ed
:10067c000010a000400588000080fa000000060071
:10068c000000fa0011e1a9001021a90081088000e6
:10069c00f0fc2f00008060008008880010c1a900c9
:1006ac0011a1a9001061a90000e2240060088800d3
:1006bc0094e0a80031058000f0ff28000080600065
:1006cc0000c0a000300588000080fa000000060081
:1006dc000200fa00000f78001e0078004200dd00d6
:1006ec006008880011e1a8000140fe000080fa00bb
:1006fc00000006000000fa0005e1a9000421a90091
:10070c0021088000f0fc2f00008060002008880089
:10071c0004c1a90005a1a9000441a90000e224001c
:10072c00100888009460a80021058000f0ff2800c4
:10073c00808060000000230001007000200588000c
:10074c000080fa00000006000000fa00000880009b
:10075c004200de000080fa00000006000200fa00f1
:10076c00000f78001e0078004200dd0000088800b1
:10077c000080fa00000006000200fa00004f78002a
:10078c001e81fb0010002000010020000002be00b2
:10079c00020378000603e900030033000402420060
:1007ac0085824a00fbff37000401be003040800008
:1007bc004140800000007100818071003040880051
:1007cc00414088000080fa00000006000200fa0098
:1007dc00004f78001e82fb0010002000010020005a
:1007ec00040178000201e90003003300000040001e
:1007fc0081804800fbff37000082ea008182ea001a
:10080c0030408000414080000403780005027800ed
:10081c00800278008100780005006300810062008e
:10082c0081017800000178000200be003040880091
:10083c00414088000080fa00000006000000fa0029
:10084c00cd22a80010002000a1ff0700cd22a90096
:10085c000080fa00000006000200fa00004f780049
:10086c001e80fb004700de00004078006140600005
:10087c000080fb00610060004e00dd00611680000e
:10088c0001e0a10001007000601688001e80fb00d2
:10089c004600de000040780061406000614060006e
:1008ac00614060000080fb00610060004d00dd00d5
:1008bc006116800001d0a100010070006016880054
:1008cc001e80fb004500de000040780061406000a7
:1008dc0061406000614060000080fb0061006000ce
:1008ec004c00dd006116800001c0a1000100700009
:1008fc00601688001e80fb004400de00004078007b
:10090c006140600061406000614060000080fb005d
:10091c00610060004600dd00211680000160a1002e
:10092c0001007000201688000080fa00000006000c
:10093c000200fa00004f78001e407800c6ff070046
:10094c00cce2a900cd02a900bcff07001e00fb00f1
:10095c004400dd00004f78001e407800beff070009
:10096c00b6ff07000080fa00000006000200fa0043
:10097c00004f78001e407800b7ff0700cce2a800bb
:10098c00cd02a900adff07001e00fb004400dd00f6
:10099c00004f78001e407800afff0700a7ff07004c
:1009ac000080fa00000006000400fa008e80e800c7
:1009bc00800878000000eb00000f78000900370079
:1009cc009e0078000e80e8001000780001004000c6
:1009dc0010407800e5ff0700a00020003cff070056
:1009ec001e0fe8009e0078000e80e80010007800d2
:1009fc0001004000104078000004e000f0ff3a00d5
:100a0c000080fa00000006000000fa000040eb0035
:100a1c00c7ff070010c0b300c5ff07000080fa0035
:100a2c00000006000200fa00c8e2a900c902a900f1
:100a3c00c922a900c0c2a900c982a900c9a2a900e3
:100a4c00c9c2a9000040eb0083ff07000000eb00c7
:100a5c00000f780003003700803e20001cff0700c9
:100a6c001e0fe8001e007800e90f5000faff34005a
:100a7c0000c3b30078ff07008038210014ff070083
:100a8c006eff0700000a200011ff07006bff070034
:100a9c00000a20000eff070068ff0700000a200074
:100aac000bff070000c2b3006bff070063ff0700da
:100abc0080c2b3009eff070000c1b3009cff07007b
:100acc00f0c0b3009aff070060c0b30098ff0700a6
:100adc000080fa00000006000000fa0002c8bf0007
:100aec000040e80002e8b70032408000434080003c
:100afc00f00b2800010e2e00800f5100818f590041
:100b0c0005003a000c68ef000d68ef000a68ef0072
:100b1c000b68ef00bcff07003240800043408000b0
:100b2c00708b2600010e2e00800f5100818f590012
:100b3c0002003a0010c0b3000ce8b700324080004d
:100b4c0043408000708f2600010e2e00800f510054
:100b5c00818f590002003a0010c0b3000de8b700b5
:100b6c003240800043408000f0012f00010e2e0027
:100b7c00800f5100818f590002003a0010c0b30061
:100b8c000ae8b7003240800043408000f0622e003b
:100b9c00010e2e00800f5100818f590002003a0087
:100bac0010c0b3000be8b7000168ef0002c8bf002b
:100bbc00e24f500048003a0011812000914078002b
:100bcc000dc8bf0080cf50000f003a0001812000fb
:100bdc00914078000cc8bf0080cf50000a003a004a
:100bec00e1802000914078000ac8bf0080cf5000ff
:100bfc0005003a00f1802000914078000bc8bf003e
:100c0c0080cf5000270032007fff0700803e20007d
:100c1c00affe07000ac8bf000004e0000600320067
:100c2c006030280060ff0700803e2000a8fe07000f
:100c3c0000ccb3003eff07000bc8bf000004e0006f
:100c4c0006003200a030280057ff0700803e20002d
:100c5c009ffe070000ccb30035ff07000cc8bf0097
:100c6c000004e00006003200003128004eff0700af
:100c7c00803e200096fe070000ccb3002cff07003e
:100c8c000dc8bf000004e0000600320060312800ef
:100c9c0045ff0700803e20008dfe070000ccb3000e
:100cac0023ff07000dc8bf0011e8b7000cc8bf0038
:100cbc0010e8b7000ac8bf000ee8b7000bc8bf00a9
:100ccc000fe8b7000c68ef000d68ef000a68ef0042
:100cdc000b68ef000268ef000080fa0000000600cd
:100cec000000fa001268ef0000c8bf000004e0002a
:100cfc000400320094fe0700204088000000eb0046
:100d0c0096fe070000c8bf000080fb00e20f5000f9
:100d1c0021003200e20f500005003c000000e00012
:100d2c0008003200e10f50000d003200590037006e
:100d3c00e30f500026003200e40f50003200320066
:100d4c005400370005e1a8000000eb0083fe07000b
:100d5c0010c0b30000e8b7001468ef004d00370076
:100d6c002140800080382100808f500004003e001c
:100d7c0021408000f0f92000808f500003003e00dd
:100d8c000068ef0005e1a9004200370020c0b30065
:100d9c0000e8b7003f003700214080008038210078
:100dac00808f500004003e0021408000f0f92000ac
:100dbc00808f500003003e000068ef0005e1a900a1
:100dcc003400370030c0b30000e8b7003100370002
:100ddc0021408000c02b2000808f500004003e007a
:100dec0021408000f0182000808f500003003e004e
:100dfc000068ef0005e1a9002600370040c0b300f1
:100e0c0000e8b700230037002140800080702000ec
:100e1c00808f500004003e0021408000f01820001c
:100e2c00808f500003003e000068ef0005e1a90030
:100e3c001800370021408000803e2000808f500039
:100e4c000500360014c8bf00f1c1b30000c050004b
:100e5c0049fe07000400370014c8bf00f1c1b300fd
:100e6c0000c0500059fe070014c8bf000040e80045
:100e7c0014e8b70014c8bf00ff4f50000200360042
:100e8c0010c0b30001e8b70030c0b30000e8b700f1
:100e9c00000000000080fa00000006000000fa00cc
:100eac000080eb006019880081e0a8008000200021
:100ebc0027000700c082a8009660a8006000a80068
:100ecc0061058000000027000100700060058800ab
:100edc0008fe0700eafd0700d5fd0700d1fe07005c
:100eec00010037000000000012c8bf000004e00041
:100efc00020032007aff07000a21ef0001c8bf0090
:100f0c000004e00003003200f3fe07000a21ef00aa
:100f1c0013e1a80013c8bf000004e000f1ff320089
:100f2c00b9fe07000a68ef000b68ef000c68ef00d1
:100f3c000d68ef001168ef001068ef000e68ef000d
:100f4c000f68ef0013e1a9001368ef00e6ff37000c
:100f5c000400fa008e80e800800878000e80e8001b
:100f6c0010007800e80f500005003a000040eb003c
:100f7c00004f7800d0032000403a8800140037005e
:100f8c000e80e80090007800401f2000808f5000f9
:100f9c0005003a0060c6b300004f7800d003200073
:100fac00403a88000a0037000e80e8009000780074
:100fbc0000022000808f500003003a0050c5b3009f
:100fcc00004f78000200370050c5b300004f780086
:100fdc0011028000000e2000010070001002880039
:100fec00213a8000f08f2f0000806000203a8800aa
:100ffc001e01fb0080072000a10920003374200093
:10100c0080497800814978008249780012002000dc
:10101c0060042000710520002374200080497800b2
:10102c0081497800824978004207a800000000003e
:10103c00103a8000610060000000e000fcff3a0004
:10104c0011028000f0f12f00008060001002880077
:08105c000080fa00000006000c
:020000040000fa
:101064000008000014000000000000001408000044
:1010740002000000020000001f0000000000000049
:020000040000fa
:0200000401f009
:04000000ffffff00ff
:020000040000fa
:0200000401f009
:04000800ffffff00f7
:020000040000fa
:0200000401f009
:04000c0000000000f0
:020000040000fa
:0200000401f009
:040010005300000099
:020000040000fa
:0200000401f009
:0400140040000000a8
:020000040000fa
:0200000401f009
:0400180010000000d4
:020000040000fa
:0200000401f009
:04001c00c20000001e
:020000040000fa
:0200000401f009
:0400200017000000c5
:00000001FF
